:020000040000FA
:100000008316031385018801FF3086008701831260
:10001000031385010130A00006308800013006027C
:1000200003191B2802300602031927280430060290
:10003000031933280E280130200203193F2802300B
:100040002002031943280430060203194328013013
:10005000200203196D280230200203193F280430C2
:10006000060203196D28013020020319902802307E
:100070002002031990280430060203193F280515B1
:10008000BA2005110E280130A10020302102061CE3
:100090004328060203194D285E280515BA205B3057
:1000A0008800BA2006308800BA200511BA20003036
:1000B0008500BA208514BA208510B9280515BA2004
:1000C00006308700BA200511BA2000308500BA201A
:1000D0008514BA208514BA20B9280230A100203036
:1000E0002102061E6D2806020319772880280514B0
:1000F000BA204F3088008514BA208510BA20B9285C
:100100000515BA20051106308800BA200510BA205E
:1001100000308500BA208514BA208510BA20B9288D
:100120000430A10020302102861F90280602031906
:100130009A28AB280515BA205B308700BA204F30CB
:100140008700BA200511BA2000308500BA20851436
:10015000BA208510B9280515BA204F308700BA207B
:100160000511BA2000308500BA208514BA20851008
:10017000B928031C1430A600FA30A500FA30A400F8
:100180000000A40BC028A50BBE28A60BBC28003479
:040190000034003403
:00000001FF
